{"abi":[{"type":"constructor","inputs":[],"stateMutability":"nonpayable"},{"type":"function","name":"endVoting","inputs":[],"outputs":[],"stateMutability":"nonpayable"},{"type":"function","name":"getResults","inputs":[],"outputs":[{"name":"","type":"uint256","internalType":"uint256"},{"name":"","type":"uint256","internalType":"uint256"}],"stateMutability":"view"},{"type":"function","name":"hasVoted","inputs":[{"name":"","type":"address","internalType":"address"}],"outputs":[{"name":"","type":"bool","internalType":"bool"}],"stateMutability":"view"},{"type":"function","name":"noVotes","inputs":[],"outputs":[{"name":"","type":"uint256","internalType":"uint256"}],"stateMutability":"view"},{"type":"function","name":"owner","inputs":[],"outputs":[{"name":"","type":"address","internalType":"address"}],"stateMutability":"view"},{"type":"function","name":"renounceOwnership","inputs":[],"outputs":[],"stateMutability":"nonpayable"},{"type":"function","name":"startVoting","inputs":[],"outputs":[],"stateMutability":"nonpayable"},{"type":"function","name":"transferOwnership","inputs":[{"name":"newOwner","type":"address","internalType":"address"}],"outputs":[],"stateMutability":"nonpayable"},{"type":"function","name":"vote","inputs":[{"name":"choice","type":"bool","internalType":"bool"}],"outputs":[],"stateMutability":"nonpayable"},{"type":"function","name":"voteState","inputs":[],"outputs":[{"name":"","type":"uint8","internalType":"enum VotingSystem.VoteState"}],"stateMutability":"view"},{"type":"function","name":"yesVotes","inputs":[],"outputs":[{"name":"","type":"uint256","internalType":"uint256"}],"stateMutability":"view"},{"type":"event","name":"OwnershipTransferred","inputs":[{"name":"previousOwner","type":"address","indexed":true,"internalType":"address"},{"name":"newOwner","type":"address","indexed":true,"internalType":"address"}],"anonymous":false},{"type":"event","name":"VoteEnded","inputs":[],"anonymous":false},{"type":"event","name":"VoteStarted","inputs":[],"anonymous":false},{"type":"event","name":"Voted","inputs":[{"name":"voter","type":"address","indexed":false,"internalType":"address"},{"name":"choice","type":"bool","indexed":false,"internalType":"bool"}],"anonymous":false},{"type":"error","name":"OwnableInvalidOwner","inputs":[{"name":"owner","type":"address","internalType":"address"}]},{"type":"error","name":"OwnableUnauthorizedAccount","inputs":[{"name":"account","type":"address","internalType":"address"}]}],"bytecode":{"object":"0x608060405234801561000f575f5ffd5b50335f73ffffffffffffffffffffffffffffffffffffffff168173ffffffffffffffffffffffffffffffffffffffff1603610081575f6040517f1e4fbdf700000000000000000000000000000000000000000000000000000000815260040161007891906101bf565b60405180910390fd5b610090816100bf60201b60201c565b505f5f60146101000a81548160ff021916908360028111156100b5576100b46101d8565b5b0217905550610205565b5f5f5f9054906101000a900473ffffffffffffffffffffffffffffffffffffffff169050815f5f6101000a81548173ffffffffffffffffffffffffffffffffffffffff021916908373ffffffffffffffffffffffffffffffffffffffff1602179055508173ffffffffffffffffffffffffffffffffffffffff168173ffffffffffffffffffffffffffffffffffffffff167f8be0079c531659141344cd1fd0a4f28419497f9722a3daafe3b4186f6b6457e060405160405180910390a35050565b5f73ffffffffffffffffffffffffffffffffffffffff82169050919050565b5f6101a982610180565b9050919050565b6101b98161019f565b82525050565b5f6020820190506101d25f8301846101b0565b92915050565b7f4e487b71000000000000000000000000000000000000000000000000000000005f52602160045260245ffd5b610ce2806102125f395ff3fe608060405234801561000f575f5ffd5b50600436106100a7575f3560e01c8063715018a61161006f578063715018a61461013e5780638da5cb5b14610148578063b5b47f4214610166578063c3403ddf14610184578063f2fde38b1461018e578063fb286c65146101aa576100a7565b806309eef43e146100ab5780631ec6b60a146100db5780634717f97c146100e55780634b9f5c981461010457806366597e5a14610120575b5f5ffd5b6100c560048036038101906100c091906108a2565b6101c8565b6040516100d291906108e7565b60405180910390f35b6100e36101e5565b005b6100ed6102b9565b6040516100fb929190610918565b60405180910390f35b61011e60048036038101906101199190610969565b61037a565b005b610128610544565b6040516101359190610a07565b60405180910390f35b610146610556565b005b610150610569565b60405161015d9190610a2f565b60405180910390f35b61016e610590565b60405161017b9190610a48565b60405180910390f35b61018c610596565b005b6101a860048036038101906101a391906108a2565b61066b565b005b6101b26106ef565b6040516101bf9190610a48565b60405180910390f35b6003602052805f5260405f205f915054906101000a900460ff1681565b6101ed6106f5565b5f6002811115610200576101ff610994565b5b5f60149054906101000a900460ff16600281111561022157610220610994565b5b14610261576040517f08c379a000000000000000000000000000000000000000000000000000000000815260040161025890610abb565b60405180910390fd5b60015f60146101000a81548160ff0219169083600281111561028657610285610994565b5b02179055507f1ad0a1ab13806f2b802415fa49a77ed3f633af31788e4a0645de1fc90c2a0da460405160405180910390a1565b5f5f6102c3610569565b73ffffffffffffffffffffffffffffffffffffffff163373ffffffffffffffffffffffffffffffffffffffff16148061032d575060028081111561030a57610309610994565b5b5f60149054906101000a900460ff16600281111561032b5761032a610994565b5b145b61036c576040517f08c379a000000000000000000000000000000000000000000000000000000000815260040161036390610b23565b60405180910390fd5b600154600254915091509091565b6001600281111561038e5761038d610994565b5b5f60149054906101000a900460ff1660028111156103af576103ae610994565b5b146103ef576040517f08c379a00000000000000000000000000000000000000000000000000000000081526004016103e690610b8b565b60405180910390fd5b60035f3373ffffffffffffffffffffffffffffffffffffffff1673ffffffffffffffffffffffffffffffffffffffff1681526020019081526020015f205f9054906101000a900460ff1615610479576040517f08c379a000000000000000000000000000000000000000000000000000000000815260040161047090610bf3565b60405180910390fd5b600160035f3373ffffffffffffffffffffffffffffffffffffffff1673ffffffffffffffffffffffffffffffffffffffff1681526020019081526020015f205f6101000a81548160ff02191690831515021790555080156104f05760015f8154809291906104e690610c3e565b9190505550610508565b60025f81548092919061050290610c3e565b91905055505b7f8eb81cb806dbb3d8a2f94981614331a55dfd90e06a42fdc362ca3ca96981d92f3382604051610539929190610c85565b60405180910390a150565b5f60149054906101000a900460ff1681565b61055e6106f5565b6105675f61077c565b565b5f5f5f9054906101000a900473ffffffffffffffffffffffffffffffffffffffff16905090565b60025481565b61059e6106f5565b600160028111156105b2576105b1610994565b5b5f60149054906101000a900460ff1660028111156105d3576105d2610994565b5b14610613576040517f08c379a000000000000000000000000000000000000000000000000000000000815260040161060a90610b8b565b60405180910390fd5b60025f60146101000a81548160ff0219169083600281111561063857610637610994565b5b02179055507f58a587d218b5732ea4aa95fdc9c2449c467d58b36fc81f672e3f5db07d49e98960405160405180910390a1565b6106736106f5565b5f73ffffffffffffffffffffffffffffffffffffffff168173ffffffffffffffffffffffffffffffffffffffff16036106e3575f6040517f1e4fbdf70000000000000000000000000000000000000000000000000000000081526004016106da9190610a2f565b60405180910390fd5b6106ec8161077c565b50565b60015481565b6106fd61083d565b73ffffffffffffffffffffffffffffffffffffffff1661071b610569565b73ffffffffffffffffffffffffffffffffffffffff161461077a5761073e61083d565b6040517f118cdaa70000000000000000000000000000000000000000000000000000000081526004016107719190610a2f565b60405180910390fd5b565b5f5f5f9054906101000a900473ffffffffffffffffffffffffffffffffffffffff169050815f5f6101000a81548173ffffffffffffffffffffffffffffffffffffffff021916908373ffffffffffffffffffffffffffffffffffffffff1602179055508173ffffffffffffffffffffffffffffffffffffffff168173ffffffffffffffffffffffffffffffffffffffff167f8be0079c531659141344cd1fd0a4f28419497f9722a3daafe3b4186f6b6457e060405160405180910390a35050565b5f33905090565b5f5ffd5b5f73ffffffffffffffffffffffffffffffffffffffff82169050919050565b5f61087182610848565b9050919050565b61088181610867565b811461088b575f5ffd5b50565b5f8135905061089c81610878565b92915050565b5f602082840312156108b7576108b6610844565b5b5f6108c48482850161088e565b91505092915050565b5f8115159050919050565b6108e1816108cd565b82525050565b5f6020820190506108fa5f8301846108d8565b92915050565b5f819050919050565b61091281610900565b82525050565b5f60408201905061092b5f830185610909565b6109386020830184610909565b9392505050565b610948816108cd565b8114610952575f5ffd5b50565b5f813590506109638161093f565b92915050565b5f6020828403121561097e5761097d610844565b5b5f61098b84828501610955565b91505092915050565b7f4e487b71000000000000000000000000000000000000000000000000000000005f52602160045260245ffd5b600381106109d2576109d1610994565b5b50565b5f8190506109e2826109c1565b919050565b5f6109f1826109d5565b9050919050565b610a01816109e7565b82525050565b5f602082019050610a1a5f8301846109f8565b92915050565b610a2981610867565b82525050565b5f602082019050610a425f830184610a20565b92915050565b5f602082019050610a5b5f830184610909565b92915050565b5f82825260208201905092915050565b7f566f74696e6720616c726561647920737461727465642f656e646564000000005f82015250565b5f610aa5601c83610a61565b9150610ab082610a71565b602082019050919050565b5f6020820190508181035f830152610ad281610a99565b9050919050565b7f4e6f7420617574686f72697a656420746f207669657720726573756c747300005f82015250565b5f610b0d601e83610a61565b9150610b1882610ad9565b602082019050919050565b5f6020820190508181035f830152610b3a81610b01565b9050919050565b7f566f74696e67206973206e6f74206163746976650000000000000000000000005f82015250565b5f610b75601483610a61565b9150610b8082610b41565b602082019050919050565b5f6020820190508181035f830152610ba281610b69565b9050919050565b7f416c726561647920766f746564000000000000000000000000000000000000005f82015250565b5f610bdd600d83610a61565b9150610be882610ba9565b602082019050919050565b5f6020820190508181035f830152610c0a81610bd1565b9050919050565b7f4e487b71000000000000000000000000000000000000000000000000000000005f52601160045260245ffd5b5f610c4882610900565b91507fffffffffffffffffffffffffffffffffffffffffffffffffffffffffffffffff8203610c7a57610c79610c11565b5b600182019050919050565b5f604082019050610c985f830185610a20565b610ca560208301846108d8565b939250505056fea2646970667358221220f7b3dadcb1dfbaf97bbe8f34559ca443386b3995f862670b99d0d578cf08598d64736f6c634300081c0033","linkReferences":{}},"methodIdentifiers":{"endVoting()":"c3403ddf","getResults()":"4717f97c","hasVoted(address)":"09eef43e","noVotes()":"b5b47f42","owner()":"8da5cb5b","renounceOwnership()":"715018a6","startVoting()":"1ec6b60a","transferOwnership(address)":"f2fde38b","vote(bool)":"4b9f5c98","voteState()":"66597e5a","yesVotes()":"fb286c65"},"id":23}